{
  "contractName": "Greeter",
  "abi": [
    {
      "constant": false,
      "inputs": [],
      "name": "kill",
      "outputs": [],
      "payable": false,
      "stateMutability": "nonpayable",
      "type": "function"
    },
    {
      "inputs": [
        {
          "name": "_greeting",
          "type": "string"
        }
      ],
      "payable": false,
      "stateMutability": "nonpayable",
      "type": "constructor"
    },
    {
      "constant": true,
      "inputs": [],
      "name": "greet",
      "outputs": [
        {
          "name": "",
          "type": "string"
        }
      ],
      "payable": false,
      "stateMutability": "view",
      "type": "function"
    }
  ],
  "bytecode": "0x608060405234801561001057600080fd5b5060405161037a38038061037a83398101806040528101908080518201929190505050336000806101000a81548173ffffffffffffffffffffffffffffffffffffffff021916908373ffffffffffffffffffffffffffffffffffffffff1602179055508060019080519060200190610089929190610090565b5050610135565b828054600181600116156101000203166002900490600052602060002090601f016020900481019282601f106100d157805160ff19168380011785556100ff565b828001600101855582156100ff579182015b828111156100fe5782518255916020019190600101906100e3565b5b50905061010c9190610110565b5090565b61013291905b8082111561012e576000816000905550600101610116565b5090565b90565b610236806101446000396000f30060806040526004361061004c576000357c0100000000000000000000000000000000000000000000000000000000900463ffffffff16806341c0e1b514610051578063cfae321714610068575b600080fd5b34801561005d57600080fd5b506100666100f8565b005b34801561007457600080fd5b5061007d610168565b6040518080602001828103825283818151815260200191508051906020019080838360005b838110156100bd5780820151818401526020810190506100a2565b50505050905090810190601f1680156100ea5780820380516001836020036101000a031916815260200191505b509250505060405180910390f35b6000809054906101000a900473ffffffffffffffffffffffffffffffffffffffff1673ffffffffffffffffffffffffffffffffffffffff163373ffffffffffffffffffffffffffffffffffffffff161415610166573373ffffffffffffffffffffffffffffffffffffffff16ff5b565b606060018054600181600116156101000203166002900480601f0160208091040260200160405190810160405280929190818152602001828054600181600116156101000203166002900480156102005780601f106101d557610100808354040283529160200191610200565b820191906000526020600020905b8154815290600101906020018083116101e357829003601f168201915b50505050509050905600a165627a7a723058202a0b93121a9ef8b65dc749eb42f7ae1f4095b66b11858bb7fbd3088aa5d6e29e0029",
  "source": "// https://www.ethereum.org/greeter\npragma solidity >=0.4.22 <0.6.0;\n\ncontract Mortal {\n    /* Define variable owner of the type address */\n    address owner;\n\n    /* This constructor is executed at initialization and sets the owner of the contract */\n    constructor() public { owner = msg.sender; }\n\n    /* Function to recover the funds on the contract */\n    function kill() public { if (msg.sender == owner) selfdestruct(msg.sender); }\n}\n\ncontract Greeter is Mortal {\n    /* Define variable greeting of the type string */\n    string greeting;\n\n    /* This runs when the contract is executed */\n    constructor(string memory _greeting) public {\n        greeting = _greeting;\n    }\n\n    /* Main function */\n    function greet() public view returns (string memory) {\n        return greeting;\n    }\n}",
  "sourcePath": "C:\\Node\\CodeLagos Blockchain Project\\contracts\\greeter.sol",
  "compiler": {
    "name": "solc",
    "version": "0.4.24+commit.e67f0147.Emscripten.clang"
  },
  "schemaVersion": "2.0.1",
  "updatedAt": "2018-12-16T20:33:52.475Z"
}